{
  "address": "0x150B17ce6597780ea5116f2987405BE603129f85",
  "abi": [
    {
      "inputs": [
        {
          "internalType": "address",
          "name": "tokenAddress",
          "type": "address"
        }
      ],
      "stateMutability": "nonpayable",
      "type": "constructor"
    },
    {
      "inputs": [
        {
          "internalType": "address",
          "name": "owner",
          "type": "address"
        }
      ],
      "name": "OwnableInvalidOwner",
      "type": "error"
    },
    {
      "inputs": [
        {
          "internalType": "address",
          "name": "account",
          "type": "address"
        }
      ],
      "name": "OwnableUnauthorizedAccount",
      "type": "error"
    },
    {
      "anonymous": false,
      "inputs": [
        {
          "indexed": true,
          "internalType": "address",
          "name": "buyer",
          "type": "address"
        },
        {
          "indexed": false,
          "internalType": "uint256",
          "name": "amountOfETH",
          "type": "uint256"
        },
        {
          "indexed": false,
          "internalType": "uint256",
          "name": "amountOfTokens",
          "type": "uint256"
        }
      ],
      "name": "BuyTokens",
      "type": "event"
    },
    {
      "anonymous": false,
      "inputs": [
        {
          "indexed": true,
          "internalType": "address",
          "name": "previousOwner",
          "type": "address"
        },
        {
          "indexed": true,
          "internalType": "address",
          "name": "newOwner",
          "type": "address"
        }
      ],
      "name": "OwnershipTransferred",
      "type": "event"
    },
    {
      "anonymous": false,
      "inputs": [
        {
          "indexed": true,
          "internalType": "address",
          "name": "seller",
          "type": "address"
        },
        {
          "indexed": false,
          "internalType": "uint256",
          "name": "amountOfTokens",
          "type": "uint256"
        },
        {
          "indexed": false,
          "internalType": "uint256",
          "name": "amountOfETH",
          "type": "uint256"
        }
      ],
      "name": "SellTokens",
      "type": "event"
    },
    {
      "anonymous": false,
      "inputs": [
        {
          "indexed": true,
          "internalType": "address",
          "name": "owner",
          "type": "address"
        },
        {
          "indexed": false,
          "internalType": "uint256",
          "name": "amountOfETH",
          "type": "uint256"
        }
      ],
      "name": "Withdraw",
      "type": "event"
    },
    {
      "inputs": [],
      "name": "buyTokens",
      "outputs": [],
      "stateMutability": "payable",
      "type": "function"
    },
    {
      "inputs": [],
      "name": "owner",
      "outputs": [
        {
          "internalType": "address",
          "name": "",
          "type": "address"
        }
      ],
      "stateMutability": "view",
      "type": "function"
    },
    {
      "inputs": [],
      "name": "renounceOwnership",
      "outputs": [],
      "stateMutability": "nonpayable",
      "type": "function"
    },
    {
      "inputs": [
        {
          "internalType": "uint256",
          "name": "amountTokens",
          "type": "uint256"
        }
      ],
      "name": "sellTokens",
      "outputs": [],
      "stateMutability": "nonpayable",
      "type": "function"
    },
    {
      "inputs": [],
      "name": "tokensPerEth",
      "outputs": [
        {
          "internalType": "uint256",
          "name": "",
          "type": "uint256"
        }
      ],
      "stateMutability": "view",
      "type": "function"
    },
    {
      "inputs": [
        {
          "internalType": "address",
          "name": "newOwner",
          "type": "address"
        }
      ],
      "name": "transferOwnership",
      "outputs": [],
      "stateMutability": "nonpayable",
      "type": "function"
    },
    {
      "inputs": [],
      "name": "withdraw",
      "outputs": [],
      "stateMutability": "nonpayable",
      "type": "function"
    },
    {
      "inputs": [],
      "name": "yourToken",
      "outputs": [
        {
          "internalType": "contract IERC20",
          "name": "",
          "type": "address"
        }
      ],
      "stateMutability": "view",
      "type": "function"
    },
    {
      "stateMutability": "payable",
      "type": "receive"
    }
  ],
  "transactionHash": "0xce8ec23f47359ad027f0eccbdd17e3f02181eb8c4c9fffd6c75091fb197f0c0b",
  "args": [
    "0x243b22d488e75153E0fd942Cd35443468A244aB5"
  ],
  "numDeployments": 1,
  "solcInputHash": "3f77ade62df5e26b82e784f8488857ae",
  "bytecode": "0x60a060405234801561001057600080fd5b506040516109b43803806109b483398101604081905261002f91610108565b338061005657604051631e4fbdf760e01b8152600060048201526024015b60405180910390fd5b61005f816100b8565b506001600160a01b0381166100a75760405162461bcd60e51b815260206004820152600e60248201526d0746f6b656e416464726573733d360941b604482015260640161004d565b6001600160a01b0316608052610138565b600080546001600160a01b038381166001600160a01b0319831681178455604051919092169283917f8be0079c531659141344cd1fd0a4f28419497f9722a3daafe3b4186f6b6457e09190a35050565b60006020828403121561011a57600080fd5b81516001600160a01b038116811461013157600080fd5b9392505050565b6080516108546101606000396000818160e9015281816103b001526105bf01526108546000f3fe60806040526004361061007f5760003560e01c80638da5cb5b1161004e5780638da5cb5b14610128578063cbdd69b514610146578063d0febe4c14610169578063f2fde38b1461017157600080fd5b80633ccfd60b1461008b5780636c11bcd3146100a2578063715018a6146100c25780637879e84b146100d757600080fd5b3661008657005b600080fd5b34801561009757600080fd5b506100a0610191565b005b3480156100ae57600080fd5b506100a06100bd366004610766565b6102bc565b3480156100ce57600080fd5b506100a0610539565b3480156100e357600080fd5b5061010b7f000000000000000000000000000000000000000000000000000000000000000081565b6040516001600160a01b0390911681526020015b60405180910390f35b34801561013457600080fd5b506000546001600160a01b031661010b565b34801561015257600080fd5b5061015b606481565b60405190815260200161011f565b6100a061054d565b34801561017d57600080fd5b506100a061018c36600461077f565b6106ab565b6101996106e9565b47806101d55760405162461bcd60e51b815260206004820152600660248201526509cde408aa8960d31b60448201526064015b60405180910390fd5b600080546040516001600160a01b039091169083908381818185875af1925050503d8060008114610222576040519150601f19603f3d011682016040523d82523d6000602084013e610227565b606091505b505090508061026a5760405162461bcd60e51b815260206004820152600f60248201526e15da5d1a191c985dc819985a5b1959608a1b60448201526064016101cc565b6000546001600160a01b03166001600160a01b03167f884edad9ce6fa2440d8a54cc123490eb96d2768479d49ff9c7366125a9424364836040516102b091815260200190565b60405180910390a25050565b600081116102f75760405162461bcd60e51b81526020600482015260086024820152670416d6f756e743d360c41b60448201526064016101cc565b60006103046064836107af565b9050600081116103475760405162461bcd60e51b815260206004820152600e60248201526d546f6f2066657720746f6b656e7360901b60448201526064016101cc565b8047101561038b5760405162461bcd60e51b81526020600482015260116024820152700accadcc8dee440deeae840decc408aa89607b1b60448201526064016101cc565b6040516323b872dd60e01b8152336004820152306024820152604481018390526000907f00000000000000000000000000000000000000000000000000000000000000006001600160a01b0316906323b872dd906064016020604051808303816000875af1158015610401573d6000803e3d6000fd5b505050506040513d601f19601f8201168201806040525081019061042591906107d1565b90508061046a5760405162461bcd60e51b81526020600482015260136024820152721d1c985b9cd9995c919c9bdb4819985a5b1959606a1b60448201526064016101cc565b604051600090339084908381818185875af1925050503d80600081146104ac576040519150601f19603f3d011682016040523d82523d6000602084013e6104b1565b606091505b50509050806104f85760405162461bcd60e51b8152602060048201526013602482015272115512081d1c985b9cd9995c8819985a5b1959606a1b60448201526064016101cc565b604080518581526020810185905233917fa24838acd4af5195a2396965dae5abf54e84e8c19f5698bb966ae64e29994ee5910160405180910390a250505050565b6105416106e9565b61054b6000610716565b565b600034116105885760405162461bcd60e51b81526020600482015260086024820152670a6cadcc8408aa8960c31b60448201526064016101cc565b60006105956064346107f3565b60405163a9059cbb60e01b8152336004820152602481018290529091506000906001600160a01b037f0000000000000000000000000000000000000000000000000000000000000000169063a9059cbb906044016020604051808303816000875af1158015610608573d6000803e3d6000fd5b505050506040513d601f19601f8201168201806040525081019061062c91906107d1565b9050806106735760405162461bcd60e51b8152602060048201526015602482015274151bdad95b881d1c985b9cd9995c8819985a5b1959605a1b60448201526064016101cc565b604080513481526020810184905233917f0a37b72bb67eee30e09084cf386f8a17817c57f620c3ab95fb25d6a20356ec7791016102b0565b6106b36106e9565b6001600160a01b0381166106dd57604051631e4fbdf760e01b8152600060048201526024016101cc565b6106e681610716565b50565b6000546001600160a01b0316331461054b5760405163118cdaa760e01b81523360048201526024016101cc565b600080546001600160a01b038381166001600160a01b0319831681178455604051919092169283917f8be0079c531659141344cd1fd0a4f28419497f9722a3daafe3b4186f6b6457e09190a35050565b60006020828403121561077857600080fd5b5035919050565b60006020828403121561079157600080fd5b81356001600160a01b03811681146107a857600080fd5b9392505050565b6000826107cc57634e487b7160e01b600052601260045260246000fd5b500490565b6000602082840312156107e357600080fd5b815180151581146107a857600080fd5b808202811582820484141761081857634e487b7160e01b600052601160045260246000fd5b9291505056fea26469706673582212201ca011a845e7fa9f719dda5e1847117d71130699f2632428ca363950a5dd00a364736f6c63430008140033",
  "devdoc": {
    "errors": {
      "OwnableInvalidOwner(address)": [
        {
          "details": "The owner is not a valid owner account. (eg. `address(0)`)"
        }
      ],
      "OwnableUnauthorizedAccount(address)": [
        {
          "details": "The caller account is not authorized to perform an operation."
        }
      ]
    },
    "kind": "dev",
    "methods": {
      "owner()": {
        "details": "Returns the address of the current owner."
      },
      "renounceOwnership()": {
        "details": "Leaves the contract without owner. It will not be possible to call `onlyOwner` functions. Can only be called by the current owner. NOTE: Renouncing ownership will leave the contract without an owner, thereby disabling any functionality that is only available to the owner."
      },
      "transferOwnership(address)": {
        "details": "Transfers ownership of the contract to a new account (`newOwner`). Can only be called by the current owner."
      }
    },
    "version": 1
  },
  "userdoc": {
    "kind": "user",
    "methods": {},
    "version": 1
  },
  "storageLayout": {
    "storage": [
      {
        "astId": 8,
        "contract": "contracts/Vendor.sol:Vendor",
        "label": "_owner",
        "offset": 0,
        "slot": "0",
        "type": "t_address"
      }
    ],
    "types": {
      "t_address": {
        "encoding": "inplace",
        "label": "address",
        "numberOfBytes": "20"
      }
    }
  }
}