{
  "address": "0xaFea59e503307b39b1eFF91332352a0b3fe59E9A",
  "abi": [
    {
      "inputs": [
        {
          "internalType": "address",
          "name": "oracle",
          "type": "address"
        },
        {
          "internalType": "address",
          "name": "myUsd",
          "type": "address"
        },
        {
          "internalType": "address",
          "name": "staking",
          "type": "address"
        },
        {
          "internalType": "address",
          "name": "rateController",
          "type": "address"
        }
      ],
      "stateMutability": "nonpayable",
      "type": "constructor"
    },
    {
      "inputs": [],
      "name": "Engine__InsufficientCollateral",
      "type": "error"
    },
    {
      "inputs": [],
      "name": "Engine__InvalidAmount",
      "type": "error"
    },
    {
      "inputs": [],
      "name": "Engine__InvalidBorrowRate",
      "type": "error"
    },
    {
      "inputs": [],
      "name": "Engine__NotLiquidatable",
      "type": "error"
    },
    {
      "inputs": [],
      "name": "Engine__NotRateController",
      "type": "error"
    },
    {
      "inputs": [],
      "name": "Engine__TransferFailed",
      "type": "error"
    },
    {
      "inputs": [],
      "name": "Engine__UnsafePositionRatio",
      "type": "error"
    },
    {
      "inputs": [],
      "name": "MyUSD__InsufficientAllowance",
      "type": "error"
    },
    {
      "inputs": [],
      "name": "MyUSD__InsufficientBalance",
      "type": "error"
    },
    {
      "inputs": [
        {
          "internalType": "address",
          "name": "owner",
          "type": "address"
        }
      ],
      "name": "OwnableInvalidOwner",
      "type": "error"
    },
    {
      "inputs": [
        {
          "internalType": "address",
          "name": "account",
          "type": "address"
        }
      ],
      "name": "OwnableUnauthorizedAccount",
      "type": "error"
    },
    {
      "anonymous": false,
      "inputs": [
        {
          "indexed": false,
          "internalType": "uint256",
          "name": "newRate",
          "type": "uint256"
        }
      ],
      "name": "BorrowRateUpdated",
      "type": "event"
    },
    {
      "anonymous": false,
      "inputs": [
        {
          "indexed": true,
          "internalType": "address",
          "name": "user",
          "type": "address"
        },
        {
          "indexed": false,
          "internalType": "uint256",
          "name": "amount",
          "type": "uint256"
        },
        {
          "indexed": false,
          "internalType": "uint256",
          "name": "ethPrice",
          "type": "uint256"
        }
      ],
      "name": "CollateralAdded",
      "type": "event"
    },
    {
      "anonymous": false,
      "inputs": [
        {
          "indexed": true,
          "internalType": "address",
          "name": "user",
          "type": "address"
        },
        {
          "indexed": false,
          "internalType": "uint256",
          "name": "amount",
          "type": "uint256"
        },
        {
          "indexed": false,
          "internalType": "uint256",
          "name": "ethPrice",
          "type": "uint256"
        }
      ],
      "name": "CollateralWithdrawn",
      "type": "event"
    },
    {
      "anonymous": false,
      "inputs": [
        {
          "indexed": true,
          "internalType": "address",
          "name": "user",
          "type": "address"
        },
        {
          "indexed": false,
          "internalType": "uint256",
          "name": "myUsdAmount",
          "type": "uint256"
        },
        {
          "indexed": false,
          "internalType": "uint256",
          "name": "shares",
          "type": "uint256"
        }
      ],
      "name": "DebtSharesBurned",
      "type": "event"
    },
    {
      "anonymous": false,
      "inputs": [
        {
          "indexed": true,
          "internalType": "address",
          "name": "user",
          "type": "address"
        },
        {
          "indexed": false,
          "internalType": "uint256",
          "name": "myUsdAmount",
          "type": "uint256"
        },
        {
          "indexed": false,
          "internalType": "uint256",
          "name": "shares",
          "type": "uint256"
        }
      ],
      "name": "DebtSharesMinted",
      "type": "event"
    },
    {
      "anonymous": false,
      "inputs": [
        {
          "indexed": true,
          "internalType": "address",
          "name": "user",
          "type": "address"
        },
        {
          "indexed": true,
          "internalType": "address",
          "name": "liquidator",
          "type": "address"
        },
        {
          "indexed": false,
          "internalType": "uint256",
          "name": "collateralSeized",
          "type": "uint256"
        },
        {
          "indexed": false,
          "internalType": "uint256",
          "name": "debtRepaid",
          "type": "uint256"
        },
        {
          "indexed": false,
          "internalType": "uint256",
          "name": "ethPrice",
          "type": "uint256"
        }
      ],
      "name": "Liquidation",
      "type": "event"
    },
    {
      "anonymous": false,
      "inputs": [
        {
          "indexed": true,
          "internalType": "address",
          "name": "previousOwner",
          "type": "address"
        },
        {
          "indexed": true,
          "internalType": "address",
          "name": "newOwner",
          "type": "address"
        }
      ],
      "name": "OwnershipTransferred",
      "type": "event"
    },
    {
      "inputs": [],
      "name": "addCollateral",
      "outputs": [],
      "stateMutability": "payable",
      "type": "function"
    },
    {
      "inputs": [],
      "name": "borrowRate",
      "outputs": [
        {
          "internalType": "uint256",
          "name": "",
          "type": "uint256"
        }
      ],
      "stateMutability": "view",
      "type": "function"
    },
    {
      "inputs": [
        {
          "internalType": "address",
          "name": "user",
          "type": "address"
        }
      ],
      "name": "calculateCollateralValue",
      "outputs": [
        {
          "internalType": "uint256",
          "name": "",
          "type": "uint256"
        }
      ],
      "stateMutability": "view",
      "type": "function"
    },
    {
      "inputs": [
        {
          "internalType": "address",
          "name": "user",
          "type": "address"
        }
      ],
      "name": "calculatePositionRatio",
      "outputs": [
        {
          "internalType": "uint256",
          "name": "",
          "type": "uint256"
        }
      ],
      "stateMutability": "view",
      "type": "function"
    },
    {
      "inputs": [],
      "name": "debtExchangeRate",
      "outputs": [
        {
          "internalType": "uint256",
          "name": "",
          "type": "uint256"
        }
      ],
      "stateMutability": "view",
      "type": "function"
    },
    {
      "inputs": [
        {
          "internalType": "address",
          "name": "user",
          "type": "address"
        }
      ],
      "name": "getCurrentDebtValue",
      "outputs": [
        {
          "internalType": "uint256",
          "name": "",
          "type": "uint256"
        }
      ],
      "stateMutability": "view",
      "type": "function"
    },
    {
      "inputs": [
        {
          "internalType": "address",
          "name": "user",
          "type": "address"
        }
      ],
      "name": "isLiquidatable",
      "outputs": [
        {
          "internalType": "bool",
          "name": "",
          "type": "bool"
        }
      ],
      "stateMutability": "view",
      "type": "function"
    },
    {
      "inputs": [],
      "name": "lastUpdateTime",
      "outputs": [
        {
          "internalType": "uint256",
          "name": "",
          "type": "uint256"
        }
      ],
      "stateMutability": "view",
      "type": "function"
    },
    {
      "inputs": [
        {
          "internalType": "address",
          "name": "user",
          "type": "address"
        }
      ],
      "name": "liquidate",
      "outputs": [],
      "stateMutability": "nonpayable",
      "type": "function"
    },
    {
      "inputs": [
        {
          "internalType": "uint256",
          "name": "amount",
          "type": "uint256"
        }
      ],
      "name": "mintMyUSD",
      "outputs": [],
      "stateMutability": "nonpayable",
      "type": "function"
    },
    {
      "inputs": [],
      "name": "owner",
      "outputs": [
        {
          "internalType": "address",
          "name": "",
          "type": "address"
        }
      ],
      "stateMutability": "view",
      "type": "function"
    },
    {
      "inputs": [],
      "name": "renounceOwnership",
      "outputs": [],
      "stateMutability": "nonpayable",
      "type": "function"
    },
    {
      "inputs": [
        {
          "internalType": "uint256",
          "name": "amount",
          "type": "uint256"
        }
      ],
      "name": "repayUpTo",
      "outputs": [],
      "stateMutability": "nonpayable",
      "type": "function"
    },
    {
      "inputs": [
        {
          "internalType": "address",
          "name": "",
          "type": "address"
        }
      ],
      "name": "s_userCollateral",
      "outputs": [
        {
          "internalType": "uint256",
          "name": "",
          "type": "uint256"
        }
      ],
      "stateMutability": "view",
      "type": "function"
    },
    {
      "inputs": [
        {
          "internalType": "address",
          "name": "",
          "type": "address"
        }
      ],
      "name": "s_userDebtShares",
      "outputs": [
        {
          "internalType": "uint256",
          "name": "",
          "type": "uint256"
        }
      ],
      "stateMutability": "view",
      "type": "function"
    },
    {
      "inputs": [
        {
          "internalType": "uint256",
          "name": "newRate",
          "type": "uint256"
        }
      ],
      "name": "setBorrowRate",
      "outputs": [],
      "stateMutability": "nonpayable",
      "type": "function"
    },
    {
      "inputs": [],
      "name": "totalDebtShares",
      "outputs": [
        {
          "internalType": "uint256",
          "name": "",
          "type": "uint256"
        }
      ],
      "stateMutability": "view",
      "type": "function"
    },
    {
      "inputs": [
        {
          "internalType": "address",
          "name": "newOwner",
          "type": "address"
        }
      ],
      "name": "transferOwnership",
      "outputs": [],
      "stateMutability": "nonpayable",
      "type": "function"
    },
    {
      "inputs": [
        {
          "internalType": "uint256",
          "name": "amount",
          "type": "uint256"
        }
      ],
      "name": "withdrawCollateral",
      "outputs": [],
      "stateMutability": "nonpayable",
      "type": "function"
    },
    {
      "stateMutability": "payable",
      "type": "receive"
    }
  ],
  "transactionHash": "0xeb4c991a184fc522c6006d275fc4e8c4fdbb4042f9c772fbcb136248a3a893d4",
  "args": [
    "0xbC7F5Af64605870B567dE16ee3bB123E4112c58B",
    "0xA9883890f408989b4A50932F2c1E1e8581b08A3f",
    "0x31c4d0652Adef9Fd661C4769B1BD3a74Eb0c63ea",
    "0x9EAF8F7fB07c1119cA4A034b81a830f7577DaDa3"
  ],
  "numDeployments": 1,
  "solcInputHash": "1dd0a3cfb9fc03ec2d61dc6882ae0cc6",
  "bytecode": "0x6101006040523480156200001257600080fd5b506040516200167238038062001672833981016040819052620000359162000108565b33806200005c57604051631e4fbdf760e01b81526000600482015260240160405180910390fd5b62000067816200009b565b506001600160a01b0393841660a052918316608052821660c0521660e05242600255670de0b6b3a764000060045562000165565b600080546001600160a01b038381166001600160a01b0319831681178455604051919092169283917f8be0079c531659141344cd1fd0a4f28419497f9722a3daafe3b4186f6b6457e09190a35050565b80516001600160a01b03811681146200010357600080fd5b919050565b600080600080608085870312156200011f57600080fd5b6200012a85620000eb565b93506200013a60208601620000eb565b92506200014a60408601620000eb565b91506200015a60608601620000eb565b905092959194509250565b60805160a05160c05160e051611494620001de600039600061102c0152600061106c0152600081816103b50152818161084a01528181610a1c0152610f1c01526000818161052c015281816105d30152818161068001528181610b2f01528181610bdf01528181610cc90152610df901526114946000f3fe6080604052600436106101185760003560e01c80638da5cb5b116100a0578063c914b43711610064578063c914b437146102dd578063d55b7cde146102f3578063d93f942a14610313578063dd3eaf0414610340578063f2fde38b1461036057600080fd5b80638da5cb5b146102545780639e8169991461027c578063b5ed350d14610284578063bd00c24d1461029a578063c8f33c91146102c757600080fd5b80632f865568116100e75780632f865568146101bd5780636112fe2e146101df578063715018a6146101ff57806384d26f8a146102145780638d250a6f1461023457600080fd5b8063042e02cf146101245780630835e145146101595780631b859e41146101875780632ed77d081461019d57600080fd5b3661011f57005b600080fd5b34801561013057600080fd5b5061014461013f36600461136c565b610380565b60405190151581526020015b60405180910390f35b34801561016557600080fd5b5061017961017436600461136c565b6103b0565b604051908152602001610150565b34801561019357600080fd5b5061017960035481565b3480156101a957600080fd5b506101796101b836600461136c565b610477565b3480156101c957600080fd5b506101dd6101d836600461136c565b6104b4565b005b3480156101eb57600080fd5b506101dd6101fa366004611395565b6108f2565b34801561020b57600080fd5b506101dd610ab9565b34801561022057600080fd5b506101dd61022f366004611395565b610acd565b34801561024057600080fd5b506101dd61024f366004611395565b610d65565b34801561026057600080fd5b506000546040516001600160a01b039091168152602001610150565b6101dd610ea7565b34801561029057600080fd5b5061017960045481565b3480156102a657600080fd5b506101796102b536600461136c565b60056020526000908152604090205481565b3480156102d357600080fd5b5061017960025481565b3480156102e957600080fd5b5061017960015481565b3480156102ff57600080fd5b5061017961030e36600461136c565b610fb6565b34801561031f57600080fd5b5061017961032e36600461136c565b60066020526000908152604090205481565b34801561034c57600080fd5b506101dd61035b366004611395565b611021565b34801561036c57600080fd5b506101dd61037b36600461136c565b61114f565b6000610395670de0b6b3a764000060966113c4565b61039e83610477565b6103a99060646113c4565b1092915050565b6000807f00000000000000000000000000000000000000000000000000000000000000006001600160a01b031663aa13d0b56040518163ffffffff1660e01b8152600401602060405180830381865afa158015610411573d6000803e3d6000fd5b505050506040513d601f19601f8201168201806040525081019061043591906113db565b6001600160a01b038416600090815260056020526040902054909150670de0b6b3a7640000906104669083906113c4565b61047091906113f4565b9392505050565b60008061048383610fb6565b905080600003610497575060001992915050565b80670de0b6b3a76400006104aa856103b0565b61046691906113c4565b6104bd81610380565b6104da576040516330b6c2c160e11b815260040160405180910390fd5b60006104e582610fb6565b6001600160a01b03831660009081526005602052604081205491925061050a846103b0565b6040516370a0823160e01b815233600482015290915083906001600160a01b037f000000000000000000000000000000000000000000000000000000000000000016906370a0823190602401602060405180830381865afa158015610573573d6000803e3d6000fd5b505050506040513d601f19601f8201168201806040525081019061059791906113db565b10156105b6576040516325154c9560e21b815260040160405180910390fd5b604051636eb1769f60e11b815233600482015230602482015283907f00000000000000000000000000000000000000000000000000000000000000006001600160a01b03169063dd62ed3e90604401602060405180830381865afa158015610622573d6000803e3d6000fd5b505050506040513d601f19601f8201168201806040525081019061064691906113db565b1015610664576040516221fc5760e71b815260040160405180910390fd5b60405163079cc67960e41b8152336004820152602481018490527f00000000000000000000000000000000000000000000000000000000000000006001600160a01b0316906379cc679090604401600060405180830381600087803b1580156106cc57600080fd5b505af11580156106e0573d6000803e3d6000fd5b5050506001600160a01b038516600090815260066020526040812054600380549193509190610710908490611416565b90915550506001600160a01b03841660009081526006602052604081208190558161073b84866113c4565b61074591906113f4565b905060006064610756600a846113c4565b61076091906113f4565b9050600061076e8284611429565b90508481111561077b5750835b6001600160a01b038716600090815260056020526040812080548392906107a3908490611416565b9091555050604051600090339083908381818185875af1925050503d80600081146107ea576040519150601f19603f3d011682016040523d82523d6000602084013e6107ef565b606091505b5050905080610811576040516347a867b760e01b815260040160405180910390fd5b336001600160a01b0316886001600160a01b03167f5a821a618ddb1a1fd304234a69c9d7f20c129d122fcf35593d13a07192664307848a7f00000000000000000000000000000000000000000000000000000000000000006001600160a01b031663aa13d0b56040518163ffffffff1660e01b8152600401602060405180830381865afa1580156108a6573d6000803e3d6000fd5b505050506040513d601f19601f820116820180604052508101906108ca91906113db565b6040805193845260208401929092529082015260600160405180910390a35050505050505050565b80600003610913576040516375ec6b4760e01b815260040160405180910390fd5b336000908152600560205260409020548111156109435760405163edee196d60e01b815260040160405180910390fd5b3360009081526005602052604081208054839290610962908490611416565b909155505033600090815260066020526040902054156109855761098533611192565b604051600090339083908381818185875af1925050503d80600081146109c7576040519150601f19603f3d011682016040523d82523d6000602084013e6109cc565b606091505b50509050806109ee576040516347a867b760e01b815260040160405180910390fd5b336001600160a01b03167fdaed309a628faec6cab72194019e2a1a34e890ca9bf9be99788992dd54692819837f00000000000000000000000000000000000000000000000000000000000000006001600160a01b031663aa13d0b56040518163ffffffff1660e01b8152600401602060405180830381865afa158015610a78573d6000803e3d6000fd5b505050506040513d601f19601f82011682018060405250810190610a9c91906113db565b604080519283526020830191909152015b60405180910390a25050565b610ac16111e0565b610acb600061120d565b565b6000610ad88261125d565b33600090815260066020526040902054909150811115610b1057503360008181526006602052604090205490610b0d90610fb6565b91505b811580610ba457506040516370a0823160e01b815233600482015282907f00000000000000000000000000000000000000000000000000000000000000006001600160a01b0316906370a0823190602401602060405180830381865afa158015610b7e573d6000803e3d6000fd5b505050506040513d601f19601f82011682018060405250810190610ba291906113db565b105b15610bc2576040516325154c9560e21b815260040160405180910390fd5b604051636eb1769f60e11b815233600482015230602482015282907f00000000000000000000000000000000000000000000000000000000000000006001600160a01b03169063dd62ed3e90604401602060405180830381865afa158015610c2e573d6000803e3d6000fd5b505050506040513d601f19601f82011682018060405250810190610c5291906113db565b1015610c70576040516221fc5760e71b815260040160405180910390fd5b3360009081526006602052604081208054839290610c8f908490611416565b925050819055508060036000828254610ca89190611416565b909155505060405163079cc67960e41b8152336004820152602481018390527f00000000000000000000000000000000000000000000000000000000000000006001600160a01b0316906379cc679090604401600060405180830381600087803b158015610d1557600080fd5b505af1158015610d29573d6000803e3d6000fd5b505060408051858152602081018590523393507fb4f416a7e6af544346b169a93907ab63ba82db8c2ad267251b5c19c55580075c925001610aad565b80600003610d86576040516375ec6b4760e01b815260040160405180910390fd5b6000610d918261125d565b33600090815260066020526040812080549293508392909190610db5908490611429565b925050819055508060036000828254610dce9190611429565b90915550610ddd905033611192565b6040516308934a5f60e31b8152336004820152602481018390527f00000000000000000000000000000000000000000000000000000000000000006001600160a01b03169063449a52f8906044016020604051808303816000875af1158015610e4a573d6000803e3d6000fd5b505050506040513d601f19601f82011682018060405250810190610e6e919061143c565b50604080518381526020810183905233917f53adc116a5b97aaef74196f7a7b2e5b7c4863414770ccac0b40d42fda70e32ae9101610aad565b34600003610ec8576040516375ec6b4760e01b815260040160405180910390fd5b3360009081526005602052604081208054349290610ee7908490611429565b92505081905550336001600160a01b03167f11f8990ac38271f23dea447d5728e9914fca7cea2edda43af6c43c415f8bc30b347f00000000000000000000000000000000000000000000000000000000000000006001600160a01b031663aa13d0b56040518163ffffffff1660e01b8152600401602060405180830381865afa158015610f78573d6000803e3d6000fd5b505050506040513d601f19601f82011682018060405250810190610f9c91906113db565b6040805192835260208301919091520160405180910390a2565b6001600160a01b0381166000908152600660205260408120548103610fdd57506000919050565b670de0b6b3a7640000610fee611279565b6001600160a01b03841660009081526006602052604090205461101191906113c4565b61101b91906113f4565b92915050565b336001600160a01b037f0000000000000000000000000000000000000000000000000000000000000000161461106a57604051632e63a58160e21b815260040160405180910390fd5b7f00000000000000000000000000000000000000000000000000000000000000006001600160a01b0316636ecd067f6040518163ffffffff1660e01b8152600401602060405180830381865afa1580156110c8573d6000803e3d6000fd5b505050506040513d601f19601f820116820180604052508101906110ec91906113db565b81101561110c57604051630acdfa5760e01b815260040160405180910390fd5b61111461134b565b60018190556040518181527f578adda73f5b431118629e4fc78f890d645ad2613a5260bddc23fa48065b940a9060200160405180910390a150565b6111576111e0565b6001600160a01b03811661118657604051631e4fbdf760e01b8152600060048201526024015b60405180910390fd5b61118f8161120d565b50565b600061119d82610477565b90506111b2670de0b6b3a764000060966113c4565b6111bd8260646113c4565b10156111dc5760405163251d13b760e21b815260040160405180910390fd5b5050565b6000546001600160a01b03163314610acb5760405163118cdaa760e01b815233600482015260240161117d565b600080546001600160a01b038381166001600160a01b0319831681178455604051919092169283917f8be0079c531659141344cd1fd0a4f28419497f9722a3daafe3b4186f6b6457e09190a35050565b6000611267611279565b611011670de0b6b3a7640000846113c4565b600060035460000361128c575060045490565b60006002544261129c9190611416565b90508015806112ab5750600154155b156112b857505060045490565b6000670de0b6b3a76400006004546003546112d391906113c4565b6112dd91906113f4565b905060006112f16301e133806127106113c4565b836001548461130091906113c4565b61130a91906113c4565b61131491906113f4565b60035490915061132c670de0b6b3a7640000836113c4565b61133691906113f4565b6004546113439190611429565b935050505090565b60035460000361135b5742600255565b611363611279565b60045542600255565b60006020828403121561137e57600080fd5b81356001600160a01b038116811461047057600080fd5b6000602082840312156113a757600080fd5b5035919050565b634e487b7160e01b600052601160045260246000fd5b808202811582820484141761101b5761101b6113ae565b6000602082840312156113ed57600080fd5b5051919050565b60008261141157634e487b7160e01b600052601260045260246000fd5b500490565b8181038181111561101b5761101b6113ae565b8082018082111561101b5761101b6113ae565b60006020828403121561144e57600080fd5b8151801515811461047057600080fdfea2646970667358221220bace5943b83f268d3aae188b4550e96870409e465ebc8a942b5bd1cff46514ff64736f6c63430008140033",
  "devdoc": {
    "errors": {
      "OwnableInvalidOwner(address)": [
        {
          "details": "The owner is not a valid owner account. (eg. `address(0)`)"
        }
      ],
      "OwnableUnauthorizedAccount(address)": [
        {
          "details": "The caller account is not authorized to perform an operation."
        }
      ]
    },
    "kind": "dev",
    "methods": {
      "owner()": {
        "details": "Returns the address of the current owner."
      },
      "renounceOwnership()": {
        "details": "Leaves the contract without owner. It will not be possible to call `onlyOwner` functions. Can only be called by the current owner. NOTE: Renouncing ownership will leave the contract without an owner, thereby disabling any functionality that is only available to the owner."
      },
      "transferOwnership(address)": {
        "details": "Transfers ownership of the contract to a new account (`newOwner`). Can only be called by the current owner."
      }
    },
    "version": 1
  },
  "userdoc": {
    "kind": "user",
    "methods": {},
    "version": 1
  },
  "storageLayout": {
    "storage": [
      {
        "astId": 8,
        "contract": "contracts/MyUSDEngine.sol:MyUSDEngine",
        "label": "_owner",
        "offset": 0,
        "slot": "0",
        "type": "t_address"
      },
      {
        "astId": 2030,
        "contract": "contracts/MyUSDEngine.sol:MyUSDEngine",
        "label": "borrowRate",
        "offset": 0,
        "slot": "1",
        "type": "t_uint256"
      },
      {
        "astId": 2032,
        "contract": "contracts/MyUSDEngine.sol:MyUSDEngine",
        "label": "lastUpdateTime",
        "offset": 0,
        "slot": "2",
        "type": "t_uint256"
      },
      {
        "astId": 2034,
        "contract": "contracts/MyUSDEngine.sol:MyUSDEngine",
        "label": "totalDebtShares",
        "offset": 0,
        "slot": "3",
        "type": "t_uint256"
      },
      {
        "astId": 2036,
        "contract": "contracts/MyUSDEngine.sol:MyUSDEngine",
        "label": "debtExchangeRate",
        "offset": 0,
        "slot": "4",
        "type": "t_uint256"
      },
      {
        "astId": 2040,
        "contract": "contracts/MyUSDEngine.sol:MyUSDEngine",
        "label": "s_userCollateral",
        "offset": 0,
        "slot": "5",
        "type": "t_mapping(t_address,t_uint256)"
      },
      {
        "astId": 2044,
        "contract": "contracts/MyUSDEngine.sol:MyUSDEngine",
        "label": "s_userDebtShares",
        "offset": 0,
        "slot": "6",
        "type": "t_mapping(t_address,t_uint256)"
      }
    ],
    "types": {
      "t_address": {
        "encoding": "inplace",
        "label": "address",
        "numberOfBytes": "20"
      },
      "t_mapping(t_address,t_uint256)": {
        "encoding": "mapping",
        "key": "t_address",
        "label": "mapping(address => uint256)",
        "numberOfBytes": "32",
        "value": "t_uint256"
      },
      "t_uint256": {
        "encoding": "inplace",
        "label": "uint256",
        "numberOfBytes": "32"
      }
    }
  }
}