{
  "address": "0x897178D1445F29BC8aba3209a61948D1fe5E0F05",
  "abi": [
    {
      "inputs": [
        {
          "internalType": "address payable",
          "name": "diceGameAddress",
          "type": "address"
        }
      ],
      "stateMutability": "nonpayable",
      "type": "constructor"
    },
    {
      "inputs": [
        {
          "internalType": "address",
          "name": "owner",
          "type": "address"
        }
      ],
      "name": "OwnableInvalidOwner",
      "type": "error"
    },
    {
      "inputs": [
        {
          "internalType": "address",
          "name": "account",
          "type": "address"
        }
      ],
      "name": "OwnableUnauthorizedAccount",
      "type": "error"
    },
    {
      "anonymous": false,
      "inputs": [
        {
          "indexed": true,
          "internalType": "address",
          "name": "previousOwner",
          "type": "address"
        },
        {
          "indexed": true,
          "internalType": "address",
          "name": "newOwner",
          "type": "address"
        }
      ],
      "name": "OwnershipTransferred",
      "type": "event"
    },
    {
      "inputs": [],
      "name": "diceGame",
      "outputs": [
        {
          "internalType": "contract DiceGame",
          "name": "",
          "type": "address"
        }
      ],
      "stateMutability": "view",
      "type": "function"
    },
    {
      "inputs": [],
      "name": "owner",
      "outputs": [
        {
          "internalType": "address",
          "name": "",
          "type": "address"
        }
      ],
      "stateMutability": "view",
      "type": "function"
    },
    {
      "inputs": [],
      "name": "renounceOwnership",
      "outputs": [],
      "stateMutability": "nonpayable",
      "type": "function"
    },
    {
      "inputs": [],
      "name": "riggedRoll",
      "outputs": [],
      "stateMutability": "nonpayable",
      "type": "function"
    },
    {
      "inputs": [
        {
          "internalType": "address",
          "name": "newOwner",
          "type": "address"
        }
      ],
      "name": "transferOwnership",
      "outputs": [],
      "stateMutability": "nonpayable",
      "type": "function"
    },
    {
      "inputs": [
        {
          "internalType": "address payable",
          "name": "_to",
          "type": "address"
        },
        {
          "internalType": "uint256",
          "name": "_amount",
          "type": "uint256"
        }
      ],
      "name": "withdraw",
      "outputs": [],
      "stateMutability": "nonpayable",
      "type": "function"
    },
    {
      "stateMutability": "payable",
      "type": "receive"
    }
  ],
  "transactionHash": "0xb221002fafb1d9478ac3544566a1f94921c96fe3fdf121719236484f714615d2",
  "args": [
    "0x793A637dB0aF4F4a0A5f16526Fb26Ebd901E32e9"
  ],
  "numDeployments": 1,
  "solcInputHash": "8d952cf3d606ee0bd7d04fdcfd77b08e",
  "bytecode": "0x608060405234801561001057600080fd5b5060405161087c38038061087c83398101604081905261002f916100d4565b338061005557604051631e4fbdf760e01b81526000600482015260240160405180910390fd5b61005e81610084565b50600180546001600160a01b0319166001600160a01b0392909216919091179055610104565b600080546001600160a01b038381166001600160a01b0319831681178455604051919092169283917f8be0079c531659141344cd1fd0a4f28419497f9722a3daafe3b4186f6b6457e09190a35050565b6000602082840312156100e657600080fd5b81516001600160a01b03811681146100fd57600080fd5b9392505050565b610769806101136000396000f3fe6080604052600436106100595760003560e01c80636b5e97f814610065578063715018a61461007c5780638da5cb5b146100915780638e288fd1146100c7578063f2fde38b146100e7578063f3fef3a31461010757600080fd5b3661006057005b600080fd5b34801561007157600080fd5b5061007a610127565b005b34801561008857600080fd5b5061007a610358565b34801561009d57600080fd5b506000546001600160a01b03165b6040516001600160a01b03909116815260200160405180910390f35b3480156100d357600080fd5b506001546100ab906001600160a01b031681565b3480156100f357600080fd5b5061007a61010236600461062c565b61036c565b34801561011357600080fd5b5061007a610122366004610650565b6103aa565b66071afd498d00004710156101835760405162461bcd60e51b815260206004820152601760248201527f4d7573742073656e6420457468657220746f20726f6c6c00000000000000000060448201526064015b60405180910390fd5b6000601061019260014361067c565b6001546040805163057ff68760e51b815290519240926001600160a01b0390921691829163affed0e09160048083019260209291908290030181865afa1580156101e0573d6000803e3d6000fd5b505050506040513d601f19601f8201168201806040525081019061020491906106a3565b6040516020016102399392919092835260609190911b6bffffffffffffffffffffffff19166020830152603482015260540190565b6040516020818303038152906040528051906020012060001c61025c91906106bc565b905061028f6040518060400160405280600f81526020016e283932b234b1ba32b2102937b6361d60891b8152508261052c565b60058111156102ec5760405162461bcd60e51b8152602060048201526024808201527f50726564696374656420726f6c6c206973206e6f7420612077696e6e696e67206044820152631c9bdb1b60e21b606482015260840161017a565b600160009054906101000a90046001600160a01b03166001600160a01b0316637d789dee476040518263ffffffff1660e01b81526004016000604051808303818588803b15801561033c57600080fd5b505af1158015610350573d6000803e3d6000fd5b505050505050565b610360610575565b61036a60006105a2565b565b610374610575565b6001600160a01b03811661039e57604051631e4fbdf760e01b81526000600482015260240161017a565b6103a7816105a2565b50565b6103b2610575565b6001600160a01b0382166103fc5760405162461bcd60e51b8152602060048201526011602482015270125b9d985b1a59081c9958da5c1a595b9d607a1b604482015260640161017a565b600081116104415760405162461bcd60e51b81526020600482015260126024820152710416d6f756e74206d757374206265203e20360741b604482015260640161017a565b804710156104915760405162461bcd60e51b815260206004820152601d60248201527f496e73756666696369656e7420636f6e74726163742062616c616e6365000000604482015260640161017a565b6000826001600160a01b03168260405160006040518083038185875af1925050503d80600081146104de576040519150601f19603f3d011682016040523d82523d6000602084013e6104e3565b606091505b50509050806105275760405162461bcd60e51b815260206004820152601060248201526f2a3930b739b332b9103330b4b632b21760811b604482015260640161017a565b505050565b61057182826040516024016105429291906106de565b60408051601f198184030181529190526020810180516001600160e01b0316632d839cb360e21b1790526105f2565b5050565b6000546001600160a01b0316331461036a5760405163118cdaa760e01b815233600482015260240161017a565b600080546001600160a01b038381166001600160a01b0319831681178455604051919092169283917f8be0079c531659141344cd1fd0a4f28419497f9722a3daafe3b4186f6b6457e09190a35050565b6103a78160006a636f6e736f6c652e6c6f679050600080835160208501845afa505050565b6001600160a01b03811681146103a757600080fd5b60006020828403121561063e57600080fd5b813561064981610617565b9392505050565b6000806040838503121561066357600080fd5b823561066e81610617565b946020939093013593505050565b8181038181111561069d57634e487b7160e01b600052601160045260246000fd5b92915050565b6000602082840312156106b557600080fd5b5051919050565b6000826106d957634e487b7160e01b600052601260045260246000fd5b500690565b604081526000835180604084015260005b8181101561070c57602081870181015160608684010152016106ef565b506000606082850101526060601f19601f830116840101915050826020830152939250505056fea2646970667358221220a8bae91a881ca0d1824e8931405252f3cda095c1eed19276b91eb5a05da96d4464736f6c63430008140033",
  "devdoc": {
    "errors": {
      "OwnableInvalidOwner(address)": [
        {
          "details": "The owner is not a valid owner account. (eg. `address(0)`)"
        }
      ],
      "OwnableUnauthorizedAccount(address)": [
        {
          "details": "The caller account is not authorized to perform an operation."
        }
      ]
    },
    "kind": "dev",
    "methods": {
      "owner()": {
        "details": "Returns the address of the current owner."
      },
      "renounceOwnership()": {
        "details": "Leaves the contract without owner. It will not be possible to call `onlyOwner` functions. Can only be called by the current owner. NOTE: Renouncing ownership will leave the contract without an owner, thereby disabling any functionality that is only available to the owner."
      },
      "transferOwnership(address)": {
        "details": "Transfers ownership of the contract to a new account (`newOwner`). Can only be called by the current owner."
      }
    },
    "version": 1
  },
  "userdoc": {
    "kind": "user",
    "methods": {},
    "version": 1
  },
  "storageLayout": {
    "storage": [
      {
        "astId": 8,
        "contract": "contracts/RiggedRoll.sol:RiggedRoll",
        "label": "_owner",
        "offset": 0,
        "slot": "0",
        "type": "t_address"
      },
      {
        "astId": 351,
        "contract": "contracts/RiggedRoll.sol:RiggedRoll",
        "label": "diceGame",
        "offset": 0,
        "slot": "1",
        "type": "t_contract(DiceGame)341"
      }
    ],
    "types": {
      "t_address": {
        "encoding": "inplace",
        "label": "address",
        "numberOfBytes": "20"
      },
      "t_contract(DiceGame)341": {
        "encoding": "inplace",
        "label": "contract DiceGame",
        "numberOfBytes": "20"
      }
    }
  }
}